{"abi":[{"type":"function","name":"addOrUpdateIndicator","inputs":[{"name":"_id","type":"string","internalType":"string"},{"name":"_labels","type":"string[]","internalType":"string[]"},{"name":"_pattern","type":"string","internalType":"string"},{"name":"_created","type":"string","internalType":"string"},{"name":"_modified","type":"string","internalType":"string"}],"outputs":[],"stateMutability":"nonpayable"},{"type":"function","name":"getAllIndicatorIds","inputs":[],"outputs":[{"name":"","type":"string[]","internalType":"string[]"}],"stateMutability":"view"},{"type":"function","name":"getAllIndicators","inputs":[],"outputs":[{"name":"","type":"tuple[]","internalType":"struct EthSTIX.Indicator[]","components":[{"name":"id","type":"string","internalType":"string"},{"name":"labels","type":"string[]","internalType":"string[]"},{"name":"pattern","type":"string","internalType":"string"},{"name":"created","type":"string","internalType":"string"},{"name":"modified","type":"string","internalType":"string"}]}],"stateMutability":"view"},{"type":"function","name":"getIndicator","inputs":[{"name":"_id","type":"string","internalType":"string"}],"outputs":[{"name":"id","type":"string","internalType":"string"},{"name":"labels","type":"string[]","internalType":"string[]"},{"name":"pattern","type":"string","internalType":"string"},{"name":"created","type":"string","internalType":"string"},{"name":"modified","type":"string","internalType":"string"}],"stateMutability":"view"},{"type":"event","name":"IndicatorAdded","inputs":[{"name":"id","type":"string","indexed":false,"internalType":"string"},{"name":"labels","type":"string[]","indexed":false,"internalType":"string[]"},{"name":"pattern","type":"string","indexed":false,"internalType":"string"},{"name":"created","type":"string","indexed":false,"internalType":"string"},{"name":"modified","type":"string","indexed":false,"internalType":"string"}],"anonymous":false},{"type":"event","name":"IndicatorUpdated","inputs":[{"name":"id","type":"string","indexed":false,"internalType":"string"},{"name":"labels","type":"string[]","indexed":false,"internalType":"string[]"},{"name":"pattern","type":"string","indexed":false,"internalType":"string"},{"name":"created","type":"string","indexed":false,"internalType":"string"},{"name":"modified","type":"string","indexed":false,"internalType":"string"}],"anonymous":false}],"bytecode":{"object":"0x6080604052348015600f57600080fd5b506112a38061001f6000396000f3fe608060405234801561001057600080fd5b506004361061004c5760003560e01c80631d725bc81461005157806391f049ee1461006f578063a6c37f7b14610093578063c0183dec146100a8575b600080fd5b6100596100bd565b6040516100669190610c59565b60405180910390f35b61008261007d366004610d2a565b610196565b604051610066959493929190610d67565b61009b610514565b6040516100669190610dd4565b6100bb6100b6366004610f98565b610939565b005b60606001805480602002602001604051908101604052809291908181526020016000905b8282101561018d57838290600052602060002001805461010090611084565b80601f016020809104026020016040519081016040528092919081815260200182805461012c90611084565b80156101795780601f1061014e57610100808354040283529160200191610179565b820191906000526020600020905b81548152906001019060200180831161015c57829003601f168201915b5050505050815260200190600101906100e1565b50505050905090565b6060806060806060600080876040516101af91906110b8565b90815260200160405180910390206040518060a00160405290816000820180546101d890611084565b80601f016020809104026020016040519081016040528092919081815260200182805461020490611084565b80156102515780601f1061022657610100808354040283529160200191610251565b820191906000526020600020905b81548152906001019060200180831161023457829003601f168201915b5050505050815260200160018201805480602002602001604051908101604052809291908181526020016000905b8282101561032b57838290600052602060002001805461029e90611084565b80601f01602080910402602001604051908101604052809291908181526020018280546102ca90611084565b80156103175780601f106102ec57610100808354040283529160200191610317565b820191906000526020600020905b8154815290600101906020018083116102fa57829003601f168201915b50505050508152602001906001019061027f565b50505050815260200160028201805461034390611084565b80601f016020809104026020016040519081016040528092919081815260200182805461036f90611084565b80156103bc5780601f10610391576101008083540402835291602001916103bc565b820191906000526020600020905b81548152906001019060200180831161039f57829003601f168201915b505050505081526020016003820180546103d590611084565b80601f016020809104026020016040519081016040528092919081815260200182805461040190611084565b801561044e5780601f106104235761010080835404028352916020019161044e565b820191906000526020600020905b81548152906001019060200180831161043157829003601f168201915b5050505050815260200160048201805461046790611084565b80601f016020809104026020016040519081016040528092919081815260200182805461049390611084565b80156104e05780601f106104b5576101008083540402835291602001916104e0565b820191906000526020600020905b8154815290600101906020018083116104c357829003601f168201915b5050509190925250508151602083015160408401516060850151608090950151929c919b5099509297509550909350505050565b60015460609060009067ffffffffffffffff81111561053557610535610c73565b60405190808252806020026020018201604052801561059857816020015b6105856040518060a0016040528060608152602001606081526020016060815260200160608152602001606081525090565b8152602001906001900390816105535790505b50905060005b600154811015610933576000600182815481106105bd576105bd6110d4565b906000526020600020016040516105d491906110ea565b90815260200160405180910390206040518060a00160405290816000820180546105fd90611084565b80601f016020809104026020016040519081016040528092919081815260200182805461062990611084565b80156106765780601f1061064b57610100808354040283529160200191610676565b820191906000526020600020905b81548152906001019060200180831161065957829003601f168201915b5050505050815260200160018201805480602002602001604051908101604052809291908181526020016000905b828210156107505783829060005260206000200180546106c390611084565b80601f01602080910402602001604051908101604052809291908181526020018280546106ef90611084565b801561073c5780601f106107115761010080835404028352916020019161073c565b820191906000526020600020905b81548152906001019060200180831161071f57829003601f168201915b5050505050815260200190600101906106a4565b50505050815260200160028201805461076890611084565b80601f016020809104026020016040519081016040528092919081815260200182805461079490611084565b80156107e15780601f106107b6576101008083540402835291602001916107e1565b820191906000526020600020905b8154815290600101906020018083116107c457829003601f168201915b505050505081526020016003820180546107fa90611084565b80601f016020809104026020016040519081016040528092919081815260200182805461082690611084565b80156108735780601f1061084857610100808354040283529160200191610873565b820191906000526020600020905b81548152906001019060200180831161085657829003601f168201915b5050505050815260200160048201805461088c90611084565b80601f01602080910402602001604051908101604052809291908181526020018280546108b890611084565b80156109055780601f106108da57610100808354040283529160200191610905565b820191906000526020600020905b8154815290600101906020018083116108e857829003601f168201915b505050505081525050828281518110610920576109206110d4565b602090810291909101015260010161059e565b50919050565b60006040518060a0016040528087815260200186815260200185815260200184815260200183815250905060008660405161097491906110b8565b908152604051908190036020019020805461098e90611084565b9050600003610a17576001805480820182556000919091527fb10e2d527612073b26eecdfd717e6a320cf44b4afac2b0732d9fcbe2b7fa0cf6016109d287826111ae565b507fdcf8fb17d81e34ea3a2fe99e0329ed47813a12dfd9506832288f743899a88ae78686868686604051610a0a959493929190610d67565b60405180910390a1610a57565b7f7e8dbbdb3dd25ee8f57af322c37cac64e376ba2f8f400bf5cd9836b5f5fc94088686868686604051610a4e959493929190610d67565b60405180910390a15b80600087604051610a6891906110b8565b90815260405190819003602001902081518190610a8590826111ae565b506020828101518051610a9e9260018501920190610ae8565b5060408201516002820190610ab390826111ae565b5060608201516003820190610ac890826111ae565b5060808201516004820190610add90826111ae565b505050505050505050565b828054828255906000526020600020908101928215610b2e579160200282015b82811115610b2e5782518290610b1e90826111ae565b5091602001919060010190610b08565b50610b3a929150610b3e565b5090565b80821115610b3a576000610b528282610b5b565b50600101610b3e565b508054610b6790611084565b6000825580601f10610b77575050565b601f016020900490600052602060002090810190610b959190610b98565b50565b5b80821115610b3a5760008155600101610b99565b60005b83811015610bc8578181015183820152602001610bb0565b50506000910152565b60008151808452610be9816020860160208601610bad565b601f01601f19169290920160200192915050565b600082825180855260208501945060208160051b8301016020850160005b83811015610c4d57601f19858403018852610c37838351610bd1565b6020988901989093509190910190600101610c1b565b50909695505050505050565b602081526000610c6c6020830184610bfd565b9392505050565b634e487b7160e01b600052604160045260246000fd5b604051601f8201601f1916810167ffffffffffffffff81118282101715610cb257610cb2610c73565b604052919050565b600082601f830112610ccb57600080fd5b813567ffffffffffffffff811115610ce557610ce5610c73565b610cf8601f8201601f1916602001610c89565b818152846020838601011115610d0d57600080fd5b816020850160208301376000918101602001919091529392505050565b600060208284031215610d3c57600080fd5b813567ffffffffffffffff811115610d5357600080fd5b610d5f84828501610cba565b949350505050565b60a081526000610d7a60a0830188610bd1565b8281036020840152610d8c8188610bfd565b90508281036040840152610da08187610bd1565b90508281036060840152610db48186610bd1565b90508281036080840152610dc88185610bd1565b98975050505050505050565b6000602082016020835280845180835260408501915060408160051b86010192506020860160005b82811015610ee457603f198786030184528151805160a08752610e2260a0880182610bd1565b6020838101518983038a830152805180845292935081019181840191600582901b85010160005b82811015610e7a57601f19868303018452610e65828651610bd1565b60209586019594909401939150600101610e49565b50604086015194508a810360408c0152610e948186610bd1565b94505050505060608201518782036060890152610eb18282610bd1565b915050608082015191508681036080880152610ecd8183610bd1565b965050506020938401939190910190600101610dfc565b50929695505050505050565b600082601f830112610f0157600080fd5b813567ffffffffffffffff811115610f1b57610f1b610c73565b8060051b610f2b60208201610c89565b91825260208185018101929081019086841115610f4757600080fd5b6020860192505b83831015610f8e57823567ffffffffffffffff811115610f6d57600080fd5b610f7c886020838a0101610cba565b83525060209283019290910190610f4e565b9695505050505050565b600080600080600060a08688031215610fb057600080fd5b853567ffffffffffffffff811115610fc757600080fd5b610fd388828901610cba565b955050602086013567ffffffffffffffff811115610ff057600080fd5b610ffc88828901610ef0565b945050604086013567ffffffffffffffff81111561101957600080fd5b61102588828901610cba565b935050606086013567ffffffffffffffff81111561104257600080fd5b61104e88828901610cba565b925050608086013567ffffffffffffffff81111561106b57600080fd5b61107788828901610cba565b9150509295509295909350565b600181811c9082168061109857607f821691505b60208210810361093357634e487b7160e01b600052602260045260246000fd5b600082516110ca818460208701610bad565b9190910192915050565b634e487b7160e01b600052603260045260246000fd5b60008083546110f881611084565b60018216801561110f576001811461112457611154565b60ff1983168652811515820286019350611154565b86600052602060002060005b8381101561114c57815488820152600190910190602001611130565b505081860193505b509195945050505050565b601f8211156111a957806000526020600020601f840160051c810160208510156111865750805b601f840160051c820191505b818110156111a65760008155600101611192565b50505b505050565b815167ffffffffffffffff8111156111c8576111c8610c73565b6111dc816111d68454611084565b8461115f565b6020601f82116001811461121057600083156111f85750848201515b600019600385901b1c1916600184901b1784556111a6565b600084815260208120601f198516915b828110156112405787850151825560209485019460019092019101611220565b508482101561125e5786840151600019600387901b60f8161c191681555b50505050600190811b0190555056fea2646970667358221220cf542c20f5861750d43fe20db9d3b17674cd290dc1d072a89cc4ea0897e0408b64736f6c634300081a0033","linkReferences":{}},"methodIdentifiers":{"addOrUpdateIndicator(string,string[],string,string,string)":"c0183dec","getAllIndicatorIds()":"1d725bc8","getAllIndicators()":"a6c37f7b","getIndicator(string)":"91f049ee"},"id":20}